{
    "_format": "hh-sol-artifact-1",
    "contractName": "Todo",
    "sourceName": "contracts/Todo.sol",
    "abi": [
        {
            "inputs": [
                {
                    "internalType": "string",
                    "name": "_task",
                    "type": "string"
                }
            ],
            "name": "addTask",
            "outputs": [],
            "stateMutability": "nonpayable",
            "type": "function"
        },
        {
            "inputs": [
                {
                    "internalType": "uint256",
                    "name": "_index",
                    "type": "uint256"
                }
            ],
            "name": "completeTask",
            "outputs": [],
            "stateMutability": "nonpayable",
            "type": "function"
        },
        {
            "inputs": [
                {
                    "internalType": "uint256",
                    "name": "_index",
                    "type": "uint256"
                }
            ],
            "name": "deleteTask",
            "outputs": [],
            "stateMutability": "nonpayable",
            "type": "function"
        },
        {
            "inputs": [],
            "name": "getTasks",
            "outputs": [
                {
                    "components": [
                        {
                            "internalType": "string",
                            "name": "task",
                            "type": "string"
                        },
                        {
                            "internalType": "bool",
                            "name": "completed",
                            "type": "bool"
                        }
                    ],
                    "internalType": "struct Todo.TodoItem[]",
                    "name": "",
                    "type": "tuple[]"
                }
            ],
            "stateMutability": "view",
            "type": "function"
        },
        {
            "inputs": [
                {
                    "internalType": "address",
                    "name": "",
                    "type": "address"
                }
            ],
            "name": "ownerTodoCount",
            "outputs": [
                {
                    "internalType": "uint256",
                    "name": "",
                    "type": "uint256"
                }
            ],
            "stateMutability": "view",
            "type": "function"
        },
        {
            "inputs": [
                {
                    "internalType": "uint256",
                    "name": "",
                    "type": "uint256"
                }
            ],
            "name": "todos",
            "outputs": [
                {
                    "internalType": "string",
                    "name": "task",
                    "type": "string"
                },
                {
                    "internalType": "bool",
                    "name": "completed",
                    "type": "bool"
                }
            ],
            "stateMutability": "view",
            "type": "function"
        }
    ],
    "bytecode": "0x608060405234801561001057600080fd5b50610fa0806100206000396000f3fe608060405234801561001057600080fd5b50600436106100625760003560e01c806304a87e38146100675780632edc863014610085578063560f3192146100b557806367238562146100d1578063bc8bc2b4146100ed578063e1e295581461011e575b600080fd5b61006f61013a565b60405161007c9190610bc7565b60405180910390f35b61009f600480360381019061009a919061094f565b610246565b6040516100ac9190610c59565b60405180910390f35b6100cf60048036038101906100ca91906109b9565b61025e565b005b6100eb60048036038101906100e69190610978565b610463565b005b610107600480360381019061010291906109b9565b61053d565b604051610115929190610be9565b60405180910390f35b610138600480360381019061013391906109b9565b610606565b005b60606000805480602002602001604051908101604052809291908181526020016000905b8282101561023d578382906000526020600020906002020160405180604001604052908160008201805461019190610e23565b80601f01602080910402602001604051908101604052809291908181526020018280546101bd90610e23565b801561020a5780601f106101df5761010080835404028352916020019161020a565b820191906000526020600020905b8154815290600101906020018083116101ed57829003601f168201915b505050505081526020016001820160009054906101000a900460ff1615151515815250508152602001906001019061015e565b50505050905090565b60016020528060005260406000206000915090505481565b60008054905081106102a5576040517f08c379a000000000000000000000000000000000000000000000000000000000815260040161029c90610c39565b60405180910390fd5b600060016000805490506102b99190610d3b565b815481106102f0577f4e487b7100000000000000000000000000000000000000000000000000000000600052603260045260246000fd5b906000526020600020906002020160008281548110610338577f4e487b7100000000000000000000000000000000000000000000000000000000600052603260045260246000fd5b9060005260206000209060020201600082018160000190805461035a90610e23565b61036592919061074d565b506001820160009054906101000a900460ff168160010160006101000a81548160ff02191690831515021790555090505060008054806103ce577f4e487b7100000000000000000000000000000000000000000000000000000000600052603160045260246000fd5b6001900381819060005260206000209060020201600080820160006103f391906107da565b6001820160006101000a81549060ff021916905550509055600160003373ffffffffffffffffffffffffffffffffffffffff1673ffffffffffffffffffffffffffffffffffffffff168152602001908152602001600020600081548092919061045b90610df9565b919050555050565b6000604051806040016040528083815260200160001515815250908060018154018082558091505060019003906000526020600020906002020160009091909190915060008201518160000190805190602001906104c292919061081a565b5060208201518160010160006101000a81548160ff0219169083151502179055505050600160003373ffffffffffffffffffffffffffffffffffffffff1673ffffffffffffffffffffffffffffffffffffffff168152602001908152602001600020600081548092919061053590610e55565b919050555050565b6000818154811061054d57600080fd5b906000526020600020906002020160009150905080600001805461057090610e23565b80601f016020809104026020016040519081016040528092919081815260200182805461059c90610e23565b80156105e95780601f106105be576101008083540402835291602001916105e9565b820191906000526020600020905b8154815290600101906020018083116105cc57829003601f168201915b5050505050908060010160009054906101000a900460ff16905082565b600080549050811061064d576040517f08c379a000000000000000000000000000000000000000000000000000000000815260040161064490610c39565b60405180910390fd5b60008181548110610687577f4e487b7100000000000000000000000000000000000000000000000000000000600052603260045260246000fd5b906000526020600020906002020160010160009054906101000a900460ff16156106e6576040517f08c379a00000000000000000000000000000000000000000000000000000000081526004016106dd90610c19565b60405180910390fd5b600160008281548110610722577f4e487b7100000000000000000000000000000000000000000000000000000000600052603260045260246000fd5b906000526020600020906002020160010160006101000a81548160ff02191690831515021790555050565b82805461075990610e23565b90600052602060002090601f01602090048101928261077b57600085556107c9565b82601f1061078c57805485556107c9565b828001600101855582156107c957600052602060002091601f016020900482015b828111156107c85782548255916001019190600101906107ad565b5b5090506107d691906108a0565b5090565b5080546107e690610e23565b6000825580601f106107f85750610817565b601f01602090049060005260206000209081019061081691906108a0565b5b50565b82805461082690610e23565b90600052602060002090601f016020900481019282610848576000855561088f565b82601f1061086157805160ff191683800117855561088f565b8280016001018555821561088f579182015b8281111561088e578251825591602001919060010190610873565b5b50905061089c91906108a0565b5090565b5b808211156108b95760008160009055506001016108a1565b5090565b60006108d06108cb84610ca5565b610c74565b9050828152602081018484840111156108e857600080fd5b6108f3848285610db7565b509392505050565b60008135905061090a81610f3c565b92915050565b600082601f83011261092157600080fd5b81356109318482602086016108bd565b91505092915050565b60008135905061094981610f53565b92915050565b60006020828403121561096157600080fd5b600061096f848285016108fb565b91505092915050565b60006020828403121561098a57600080fd5b600082013567ffffffffffffffff8111156109a457600080fd5b6109b084828501610910565b91505092915050565b6000602082840312156109cb57600080fd5b60006109d98482850161093a565b91505092915050565b60006109ee8383610b7b565b905092915050565b6000610a0182610ce5565b610a0b8185610d08565b935083602082028501610a1d85610cd5565b8060005b85811015610a595784840389528151610a3a85826109e2565b9450610a4583610cfb565b925060208a01995050600181019050610a21565b50829750879550505050505092915050565b610a7481610d81565b82525050565b610a8381610d81565b82525050565b6000610a9482610cf0565b610a9e8185610d19565b9350610aae818560208601610dc6565b610ab781610f2b565b840191505092915050565b6000610acd82610cf0565b610ad78185610d2a565b9350610ae7818560208601610dc6565b610af081610f2b565b840191505092915050565b6000610b08601683610d2a565b91507f5461736b20616c726561647920636f6d706c65746564000000000000000000006000830152602082019050919050565b6000610b48601283610d2a565b91507f496e646578206f7574206f662072616e676500000000000000000000000000006000830152602082019050919050565b60006040830160008301518482036000860152610b988282610a89565b9150506020830151610bad6020860182610a6b565b508091505092915050565b610bc181610dad565b82525050565b60006020820190508181036000830152610be181846109f6565b905092915050565b60006040820190508181036000830152610c038185610ac2565b9050610c126020830184610a7a565b9392505050565b60006020820190508181036000830152610c3281610afb565b9050919050565b60006020820190508181036000830152610c5281610b3b565b9050919050565b6000602082019050610c6e6000830184610bb8565b92915050565b6000604051905081810181811067ffffffffffffffff82111715610c9b57610c9a610efc565b5b8060405250919050565b600067ffffffffffffffff821115610cc057610cbf610efc565b5b601f19601f8301169050602081019050919050565b6000819050602082019050919050565b600081519050919050565b600081519050919050565b6000602082019050919050565b600082825260208201905092915050565b600082825260208201905092915050565b600082825260208201905092915050565b6000610d4682610dad565b9150610d5183610dad565b925082821015610d6457610d63610e9e565b5b828203905092915050565b6000610d7a82610d8d565b9050919050565b60008115159050919050565b600073ffffffffffffffffffffffffffffffffffffffff82169050919050565b6000819050919050565b82818337600083830152505050565b60005b83811015610de4578082015181840152602081019050610dc9565b83811115610df3576000848401525b50505050565b6000610e0482610dad565b91506000821415610e1857610e17610e9e565b5b600182039050919050565b60006002820490506001821680610e3b57607f821691505b60208210811415610e4f57610e4e610ecd565b5b50919050565b6000610e6082610dad565b91507fffffffffffffffffffffffffffffffffffffffffffffffffffffffffffffffff821415610e9357610e92610e9e565b5b600182019050919050565b7f4e487b7100000000000000000000000000000000000000000000000000000000600052601160045260246000fd5b7f4e487b7100000000000000000000000000000000000000000000000000000000600052602260045260246000fd5b7f4e487b7100000000000000000000000000000000000000000000000000000000600052604160045260246000fd5b6000601f19601f8301169050919050565b610f4581610d6f565b8114610f5057600080fd5b50565b610f5c81610dad565b8114610f6757600080fd5b5056fea2646970667358221220f5d9d2d1d14faed51a9c021a2d354a7cbc6635ecc6dd7c3d8b98a6a31fa7d13264736f6c63430008000033",
    "linkReferences": {},
    "deployedLinkReferences": {}
}